{
  "contractName": "CoBonus",
  "abi": [
    {
      "constant": true,
      "inputs": [
        {
          "name": "",
          "type": "uint256"
        }
      ],
      "name": "shoes",
      "outputs": [
        {
          "name": "owner",
          "type": "address"
        },
        {
          "name": "name",
          "type": "string"
        },
        {
          "name": "image",
          "type": "string"
        },
        {
          "name": "sold",
          "type": "bool"
        }
      ],
      "payable": false,
      "stateMutability": "view",
      "type": "function"
    },
    {
      "constant": true,
      "inputs": [],
      "name": "ownerAddress",
      "outputs": [
        {
          "name": "",
          "type": "address"
        }
      ],
      "payable": false,
      "stateMutability": "view",
      "type": "function"
    },
    {
      "inputs": [
        {
          "name": "_ownedTokenAddress",
          "type": "address"
        }
      ],
      "payable": false,
      "stateMutability": "nonpayable",
      "type": "constructor"
    },
    {
      "constant": true,
      "inputs": [],
      "name": "getNumberofTokens",
      "outputs": [
        {
          "name": "counts",
          "type": "uint256"
        }
      ],
      "payable": false,
      "stateMutability": "view",
      "type": "function"
    },
    {
      "constant": false,
      "inputs": [
        {
          "name": "_name",
          "type": "string"
        },
        {
          "name": "_image",
          "type": "string"
        }
      ],
      "name": "buyShoe",
      "outputs": [
        {
          "name": "",
          "type": "uint256"
        }
      ],
      "payable": true,
      "stateMutability": "payable",
      "type": "function"
    },
    {
      "constant": true,
      "inputs": [],
      "name": "checkPurchases",
      "outputs": [
        {
          "name": "",
          "type": "bool[]"
        }
      ],
      "payable": false,
      "stateMutability": "view",
      "type": "function"
    }
  ],
  "bytecode": "0x60806040526000805560006001553480156200001a57600080fd5b5060405160208062001032833981018060405260208110156200003c57600080fd5b81019080805190602001909291905050506000600190505b60648111620001aa57600260405180608001604052803373ffffffffffffffffffffffffffffffffffffffff168152602001604051806020016040528060008152508152602001604051806020016040528060008152508152602001600015158152509080600181540180825580915050906001820390600052602060002090600402016000909192909190915060008201518160000160006101000a81548173ffffffffffffffffffffffffffffffffffffffff021916908373ffffffffffffffffffffffffffffffffffffffff160217905550602082015181600101908051906020019062000147929190620001f3565b50604082015181600201908051906020019062000166929190620001f3565b5060608201518160030160006101000a81548160ff021916908315150217905550505050600160008154809291906001019190505550808060010191505062000054565b5080600360006101000a81548173ffffffffffffffffffffffffffffffffffffffff021916908373ffffffffffffffffffffffffffffffffffffffff16021790555050620002a2565b828054600181600116156101000203166002900490600052602060002090601f016020900481019282601f106200023657805160ff191683800117855562000267565b8280016001018555821562000267579182015b828111156200026657825182559160200191906001019062000249565b5b5090506200027691906200027a565b5090565b6200029f91905b808211156200029b57600081600090555060010162000281565b5090565b90565b610d8080620002b26000396000f3fe60806040526004361061004a5760003560e01c80634fb7bb131461004f578063540a2f4f1461007a578063558a2b8b146101e0578063607473cf1461024c5780638f84aa09146103aa575b600080fd5b34801561005b57600080fd5b50610064610401565b6040518082815260200191505060405180910390f35b6101ca6004803603604081101561009057600080fd5b81019080803590602001906401000000008111156100ad57600080fd5b8201836020820111156100bf57600080fd5b803590602001918460018302840111640100000000831117156100e157600080fd5b91908080601f016020809104026020016040519081016040528093929190818152602001838380828437600081840152601f19601f8201169050808301925050505050505091929192908035906020019064010000000081111561014457600080fd5b82018360208201111561015657600080fd5b8035906020019184600183028401116401000000008311171561017857600080fd5b91908080601f016020809104026020016040519081016040528093929190818152602001838380828437600081840152601f19601f82011690508083019250505050505050919291929050505061040e565b6040518082815260200191505060405180910390f35b3480156101ec57600080fd5b506101f5610a31565b6040518080602001828103825283818151815260200191508051906020019060200280838360005b8381101561023857808201518184015260208101905061021d565b505050509050019250505060405180910390f35b34801561025857600080fd5b506102856004803603602081101561026f57600080fd5b8101908080359060200190929190505050610aef565b604051808573ffffffffffffffffffffffffffffffffffffffff1673ffffffffffffffffffffffffffffffffffffffff168152602001806020018060200184151515158152602001838103835286818151815260200191508051906020019080838360005b838110156103055780820151818401526020810190506102ea565b50505050905090810190601f1680156103325780820380516001836020036101000a031916815260200191505b50838103825285818151815260200191508051906020019080838360005b8381101561036b578082015181840152602081019050610350565b50505050905090810190601f1680156103985780820380516001836020036101000a031916815260200191505b50965050505050505060405180910390f35b3480156103b657600080fd5b506103bf610c89565b604051808273ffffffffffffffffffffffffffffffffffffffff1673ffffffffffffffffffffffffffffffffffffffff16815260200191505060405180910390f35b6000600280549050905090565b60006002805490506000541061048c576040517f08c379a00000000000000000000000000000000000000000000000000000000081526004018080602001828103825260188152602001807f6578636565646564206e756d626572206f662073686f6573000000000000000081525060200191505060405180910390fd5b6000600360009054906101000a900473ffffffffffffffffffffffffffffffffffffffff1673ffffffffffffffffffffffffffffffffffffffff166370a08231336040518263ffffffff1660e01b8152600401808273ffffffffffffffffffffffffffffffffffffffff1673ffffffffffffffffffffffffffffffffffffffff16815260200191505060206040518083038186803b15801561052d57600080fd5b505afa158015610541573d6000803e3d6000fd5b505050506040513d602081101561055757600080fd5b8101908080519060200190929190505050116105db576040517f08c379a00000000000000000000000000000000000000000000000000000000081526004018080602001828103825260138152602001807f4e6f20546f6b656e7320617661696c61626c650000000000000000000000000081525060200191505060405180910390fd5b600360009054906101000a900473ffffffffffffffffffffffffffffffffffffffff1673ffffffffffffffffffffffffffffffffffffffff16638da5cb5b6040518163ffffffff1660e01b815260040160206040518083038186803b15801561064357600080fd5b505afa158015610657573d6000803e3d6000fd5b505050506040513d602081101561066d57600080fd5b8101908080519060200190929190505050600460006101000a81548173ffffffffffffffffffffffffffffffffffffffff021916908373ffffffffffffffffffffffffffffffffffffffff160217905550600360009054906101000a900473ffffffffffffffffffffffffffffffffffffffff1673ffffffffffffffffffffffffffffffffffffffff166323b872dd33600460009054906101000a900473ffffffffffffffffffffffffffffffffffffffff1660016040518463ffffffff1660e01b8152600401808473ffffffffffffffffffffffffffffffffffffffff1673ffffffffffffffffffffffffffffffffffffffff1681526020018373ffffffffffffffffffffffffffffffffffffffff1673ffffffffffffffffffffffffffffffffffffffff1681526020018281526020019350505050602060405180830381600087803b1580156107be57600080fd5b505af11580156107d2573d6000803e3d6000fd5b505050506040513d60208110156107e857600080fd5b810190808051906020019092919050505061086b576040517f08c379a000000000000000000000000000000000000000000000000000000000815260040180806020018281038252600f8152602001807f5472616e73666572206661696c6564000000000000000000000000000000000081525060200191505060405180910390fd5b60006001600054019050600015156002828154811061088657fe5b906000526020600020906004020160030160009054906101000a900460ff1615151461091a576040517f08c379a00000000000000000000000000000000000000000000000000000000081526004018080602001828103825260148152602001807f73686f6520686173206265656e20626f7567687400000000000000000000000081525060200191505060405180910390fd5b336002828154811061092857fe5b906000526020600020906004020160000160006101000a81548173ffffffffffffffffffffffffffffffffffffffff021916908373ffffffffffffffffffffffffffffffffffffffff160217905550836002828154811061098557fe5b906000526020600020906004020160010190805190602001906109a9929190610caf565b5082600282815481106109b857fe5b906000526020600020906004020160020190805190602001906109dc929190610caf565b506001600282815481106109ec57fe5b906000526020600020906004020160030160006101000a81548160ff021916908315150217905550600080815480929190600101919050555060005491505092915050565b60608060008090505b600280549050811015610ae7573373ffffffffffffffffffffffffffffffffffffffff1660028281548110610a6b57fe5b906000526020600020906004020160000160009054906101000a900473ffffffffffffffffffffffffffffffffffffffff1673ffffffffffffffffffffffffffffffffffffffff161415610ada576001828281518110610ac757fe5b6020026020010190151590811515815250505b8080600101915050610a3a565b508091505090565b60028181548110610afc57fe5b90600052602060002090600402016000915090508060000160009054906101000a900473ffffffffffffffffffffffffffffffffffffffff1690806001018054600181600116156101000203166002900480601f016020809104026020016040519081016040528092919081815260200182805460018160011615610100020316600290048015610bce5780601f10610ba357610100808354040283529160200191610bce565b820191906000526020600020905b815481529060010190602001808311610bb157829003601f168201915b505050505090806002018054600181600116156101000203166002900480601f016020809104026020016040519081016040528092919081815260200182805460018160011615610100020316600290048015610c6c5780601f10610c4157610100808354040283529160200191610c6c565b820191906000526020600020905b815481529060010190602001808311610c4f57829003601f168201915b5050505050908060030160009054906101000a900460ff16905084565b600460009054906101000a900473ffffffffffffffffffffffffffffffffffffffff1681565b828054600181600116156101000203166002900490600052602060002090601f016020900481019282601f10610cf057805160ff1916838001178555610d1e565b82800160010185558215610d1e579182015b82811115610d1d578251825591602001919060010190610d02565b5b509050610d2b9190610d2f565b5090565b610d5191905b80821115610d4d576000816000905550600101610d35565b5090565b9056fea165627a7a723058201d9ea2d1fbc961f1bae685d7fe0379ab342140a2d56c64379f9998210526d7bb0029",
  "source": "pragma solidity^0.5.0;\n\nimport \"./CoToken.sol\";\n\ncontract CoBonus {\n\n    //creates the struct\n    struct Shoe {\n        address payable owner; //address of the owner\n        string name; //name of owner\n        string image; //url of the image\n        bool sold;\n    }\n\n    // initializes the variables\n    //Price is 1CO, so 1 Co Token\n    uint256 shoesSold = 0;\n    uint256 count = 0;\n\n    // create the array\n    Shoe[] public shoes;\n\n\n    CoToken ownedToken;\n    //creates constructor for 100 tokens, count is increased each time in case needs to be verified that count equals 100\n    constructor(address _ownedTokenAddress) public {\n        for (uint i = 1; i <= 100; i++) {\n        shoes.push(Shoe(msg.sender, \"\",\"\",false));\n        count++;\n        }\n        ownedToken = CoToken(_ownedTokenAddress);\n    }\n\n    //function gets total number of tokens minted\n    function getNumberofTokens() public view returns(uint counts) {\n        return shoes.length;\n    }\n\n    address public ownerAddress;\n\n    //function allows for buying shoe by specifying the name and image on it, as well as having the correct amount plus the shoe not have been sold already\n    function buyShoe(string memory _name, string memory _image) public payable returns(uint){ //used to be external payable\n        //ensure that not all shoes have been sold\n        require(shoesSold < shoes.length, \"exceeded number of shoes\");\n                \n        //Check if the token owner has any tokens\n        require(ownedToken.balanceOf(msg.sender) > 0, \"No Tokens available\");\n        //Getting Owner Address\n        ownerAddress = ownedToken.owner();\n        \n        //Once the tokens are available, then they can be transferred to new owner\n        require(ownedToken.transferFrom(msg.sender, ownerAddress, 1), \"Transfer failed\");\n          \n        uint256 i = shoesSold + 1;\n        require(shoes[i].sold == false,'shoe has been bought');\n        \n        //update the values of the next shoe\n        shoes[i].owner = msg.sender;\n        shoes[i].name = _name;\n        shoes[i].image = _image;\n        shoes[i].sold = true;\n        shoesSold++; //increment count\n        return shoesSold;\n    }\n\n\n    //function to return an array of bools of an array of all the purchases that are true\n    function checkPurchases() external view returns (bool[] memory){\n        bool[] memory checkPurchase;\n        for (uint256 i = 0; i < shoes.length; i++){\n            if (shoes[i].owner == msg.sender){\n                checkPurchase[i] = true;\n            }\n        }\n        return checkPurchase;\n    }\n\n}",
  "sourcePath": "/Users/admin/Documents/FTC-Q2.3-Exam/contracts/CoBonus.sol",
  "compiler": {
    "name": "solc",
    "version": "0.5.8+commit.23d335f2.Emscripten.clang"
  },
  "schemaVersion": "3.0.11",
  "updatedAt": "2019-08-05T01:11:54.940Z",
  "devdoc": {
    "methods": {}
  },
  "userdoc": {
    "methods": {}
  }
}